{
  "_format": "hh-sol-artifact-1",
  "contractName": "BLMN",
  "sourceName": "contracts/BITLMN.sol",
  "abi": [
    {
      "inputs": [
        {
          "internalType": "address",
          "name": "presale",
          "type": "address"
        },
        {
          "internalType": "address",
          "name": "marketing",
          "type": "address"
        },
        {
          "internalType": "address",
          "name": "exchange",
          "type": "address"
        },
        {
          "internalType": "address",
          "name": "rewards",
          "type": "address"
        },
        {
          "internalType": "address",
          "name": "team",
          "type": "address"
        },
        {
          "internalType": "address",
          "name": "burn",
          "type": "address"
        }
      ],
      "stateMutability": "nonpayable",
      "type": "constructor"
    },
    {
      "inputs": [],
      "name": "BLMN_TransferLocked",
      "type": "error"
    },
    {
      "inputs": [],
      "name": "BLMN_ZeroAddress",
      "type": "error"
    },
    {
      "inputs": [
        {
          "internalType": "address",
          "name": "spender",
          "type": "address"
        },
        {
          "internalType": "uint256",
          "name": "allowance",
          "type": "uint256"
        },
        {
          "internalType": "uint256",
          "name": "needed",
          "type": "uint256"
        }
      ],
      "name": "ERC20InsufficientAllowance",
      "type": "error"
    },
    {
      "inputs": [
        {
          "internalType": "address",
          "name": "sender",
          "type": "address"
        },
        {
          "internalType": "uint256",
          "name": "balance",
          "type": "uint256"
        },
        {
          "internalType": "uint256",
          "name": "needed",
          "type": "uint256"
        }
      ],
      "name": "ERC20InsufficientBalance",
      "type": "error"
    },
    {
      "inputs": [
        {
          "internalType": "address",
          "name": "approver",
          "type": "address"
        }
      ],
      "name": "ERC20InvalidApprover",
      "type": "error"
    },
    {
      "inputs": [
        {
          "internalType": "address",
          "name": "receiver",
          "type": "address"
        }
      ],
      "name": "ERC20InvalidReceiver",
      "type": "error"
    },
    {
      "inputs": [
        {
          "internalType": "address",
          "name": "sender",
          "type": "address"
        }
      ],
      "name": "ERC20InvalidSender",
      "type": "error"
    },
    {
      "inputs": [
        {
          "internalType": "address",
          "name": "spender",
          "type": "address"
        }
      ],
      "name": "ERC20InvalidSpender",
      "type": "error"
    },
    {
      "inputs": [
        {
          "internalType": "address",
          "name": "owner",
          "type": "address"
        }
      ],
      "name": "OwnableInvalidOwner",
      "type": "error"
    },
    {
      "inputs": [
        {
          "internalType": "address",
          "name": "account",
          "type": "address"
        }
      ],
      "name": "OwnableUnauthorizedAccount",
      "type": "error"
    },
    {
      "anonymous": false,
      "inputs": [
        {
          "indexed": true,
          "internalType": "address",
          "name": "owner",
          "type": "address"
        },
        {
          "indexed": true,
          "internalType": "address",
          "name": "spender",
          "type": "address"
        },
        {
          "indexed": false,
          "internalType": "uint256",
          "name": "value",
          "type": "uint256"
        }
      ],
      "name": "Approval",
      "type": "event"
    },
    {
      "anonymous": false,
      "inputs": [
        {
          "indexed": true,
          "internalType": "address",
          "name": "previousOwner",
          "type": "address"
        },
        {
          "indexed": true,
          "internalType": "address",
          "name": "newOwner",
          "type": "address"
        }
      ],
      "name": "OwnershipTransferred",
      "type": "event"
    },
    {
      "anonymous": false,
      "inputs": [
        {
          "indexed": true,
          "internalType": "address",
          "name": "from",
          "type": "address"
        },
        {
          "indexed": true,
          "internalType": "address",
          "name": "to",
          "type": "address"
        },
        {
          "indexed": false,
          "internalType": "uint256",
          "name": "value",
          "type": "uint256"
        }
      ],
      "name": "Transfer",
      "type": "event"
    },
    {
      "anonymous": false,
      "inputs": [
        {
          "indexed": true,
          "internalType": "bool",
          "name": "locked",
          "type": "bool"
        }
      ],
      "name": "TransferLockUpdated",
      "type": "event"
    },
    {
      "inputs": [],
      "name": "BURN_ADDRESS",
      "outputs": [
        {
          "internalType": "address",
          "name": "",
          "type": "address"
        }
      ],
      "stateMutability": "view",
      "type": "function"
    },
    {
      "inputs": [],
      "name": "EXCHANGE_ADDRESS",
      "outputs": [
        {
          "internalType": "address",
          "name": "",
          "type": "address"
        }
      ],
      "stateMutability": "view",
      "type": "function"
    },
    {
      "inputs": [],
      "name": "MARKETING_ADDRESS",
      "outputs": [
        {
          "internalType": "address",
          "name": "",
          "type": "address"
        }
      ],
      "stateMutability": "view",
      "type": "function"
    },
    {
      "inputs": [],
      "name": "PRESALE_ADDRESS",
      "outputs": [
        {
          "internalType": "address",
          "name": "",
          "type": "address"
        }
      ],
      "stateMutability": "view",
      "type": "function"
    },
    {
      "inputs": [],
      "name": "REWARDS_ADDRESS",
      "outputs": [
        {
          "internalType": "address",
          "name": "",
          "type": "address"
        }
      ],
      "stateMutability": "view",
      "type": "function"
    },
    {
      "inputs": [],
      "name": "TEAM_ADDRESS",
      "outputs": [
        {
          "internalType": "address",
          "name": "",
          "type": "address"
        }
      ],
      "stateMutability": "view",
      "type": "function"
    },
    {
      "inputs": [
        {
          "internalType": "address",
          "name": "owner",
          "type": "address"
        },
        {
          "internalType": "address",
          "name": "spender",
          "type": "address"
        }
      ],
      "name": "allowance",
      "outputs": [
        {
          "internalType": "uint256",
          "name": "",
          "type": "uint256"
        }
      ],
      "stateMutability": "view",
      "type": "function"
    },
    {
      "inputs": [
        {
          "internalType": "address",
          "name": "spender",
          "type": "address"
        },
        {
          "internalType": "uint256",
          "name": "value",
          "type": "uint256"
        }
      ],
      "name": "approve",
      "outputs": [
        {
          "internalType": "bool",
          "name": "",
          "type": "bool"
        }
      ],
      "stateMutability": "nonpayable",
      "type": "function"
    },
    {
      "inputs": [
        {
          "internalType": "address",
          "name": "account",
          "type": "address"
        }
      ],
      "name": "balanceOf",
      "outputs": [
        {
          "internalType": "uint256",
          "name": "",
          "type": "uint256"
        }
      ],
      "stateMutability": "view",
      "type": "function"
    },
    {
      "inputs": [
        {
          "internalType": "uint256",
          "name": "value",
          "type": "uint256"
        }
      ],
      "name": "burn",
      "outputs": [],
      "stateMutability": "nonpayable",
      "type": "function"
    },
    {
      "inputs": [
        {
          "internalType": "address",
          "name": "account",
          "type": "address"
        },
        {
          "internalType": "uint256",
          "name": "value",
          "type": "uint256"
        }
      ],
      "name": "burnFrom",
      "outputs": [],
      "stateMutability": "nonpayable",
      "type": "function"
    },
    {
      "inputs": [],
      "name": "decimals",
      "outputs": [
        {
          "internalType": "uint8",
          "name": "",
          "type": "uint8"
        }
      ],
      "stateMutability": "view",
      "type": "function"
    },
    {
      "inputs": [],
      "name": "name",
      "outputs": [
        {
          "internalType": "string",
          "name": "",
          "type": "string"
        }
      ],
      "stateMutability": "view",
      "type": "function"
    },
    {
      "inputs": [],
      "name": "owner",
      "outputs": [
        {
          "internalType": "address",
          "name": "",
          "type": "address"
        }
      ],
      "stateMutability": "view",
      "type": "function"
    },
    {
      "inputs": [],
      "name": "renounceOwnership",
      "outputs": [],
      "stateMutability": "nonpayable",
      "type": "function"
    },
    {
      "inputs": [
        {
          "internalType": "bool",
          "name": "locked",
          "type": "bool"
        }
      ],
      "name": "setTransferLock",
      "outputs": [],
      "stateMutability": "nonpayable",
      "type": "function"
    },
    {
      "inputs": [],
      "name": "symbol",
      "outputs": [
        {
          "internalType": "string",
          "name": "",
          "type": "string"
        }
      ],
      "stateMutability": "view",
      "type": "function"
    },
    {
      "inputs": [],
      "name": "totalSupply",
      "outputs": [
        {
          "internalType": "uint256",
          "name": "",
          "type": "uint256"
        }
      ],
      "stateMutability": "view",
      "type": "function"
    },
    {
      "inputs": [
        {
          "internalType": "address",
          "name": "to",
          "type": "address"
        },
        {
          "internalType": "uint256",
          "name": "value",
          "type": "uint256"
        }
      ],
      "name": "transfer",
      "outputs": [
        {
          "internalType": "bool",
          "name": "",
          "type": "bool"
        }
      ],
      "stateMutability": "nonpayable",
      "type": "function"
    },
    {
      "inputs": [
        {
          "internalType": "address",
          "name": "from",
          "type": "address"
        },
        {
          "internalType": "address",
          "name": "to",
          "type": "address"
        },
        {
          "internalType": "uint256",
          "name": "value",
          "type": "uint256"
        }
      ],
      "name": "transferFrom",
      "outputs": [
        {
          "internalType": "bool",
          "name": "",
          "type": "bool"
        }
      ],
      "stateMutability": "nonpayable",
      "type": "function"
    },
    {
      "inputs": [],
      "name": "transferLocked",
      "outputs": [
        {
          "internalType": "bool",
          "name": "",
          "type": "bool"
        }
      ],
      "stateMutability": "view",
      "type": "function"
    },
    {
      "inputs": [
        {
          "internalType": "address",
          "name": "newOwner",
          "type": "address"
        }
      ],
      "name": "transferOwnership",
      "outputs": [],
      "stateMutability": "nonpayable",
      "type": "function"
    }
  ],
  "bytecode": "0x61014060405234801561001157600080fd5b5060405161123038038061123083398101604081905261003091610475565b604080518082018252600480825263212626a760e11b60208084018290528451808601909552918452908301523391600361006b8382610587565b5060046100788282610587565b5050506001600160a01b0381166100aa57604051631e4fbdf760e01b8152600060048201526024015b60405180910390fd5b6100b381610268565b506001600160a01b03861615806100d157506001600160a01b038516155b806100e357506001600160a01b038416155b806100f557506001600160a01b038316155b8061010757506001600160a01b038216155b8061011957506001600160a01b038116155b15610137576040516344dc5f7560e11b815260040160405180910390fd5b6001600160a01b03808716608081905286821660a05285821660c05284821660e05283821661010052908216610120526101959061271061018661157c6b033b2e3c9fd0803ce800000061065b565b6101909190610678565b6102ba565b60a0516101b7906127106101866104b06b033b2e3c9fd0803ce800000061065b565b60c0516101d9906127106101866103e86b033b2e3c9fd0803ce800000061065b565b60e0516101fb906127106101866107086b033b2e3c9fd0803ce800000061065b565b6101005161021e906127106101866101f46b033b2e3c9fd0803ce800000061065b565b6005805460ff60a01b1916600160a01b1790556040516001907fe283de4922ea2344d1d1bc86307cd12000476529895ad843b194478831e029e990600090a25050505050506106ad565b600580546001600160a01b038381166001600160a01b0319831681179093556040519116919082907f8be0079c531659141344cd1fd0a4f28419497f9722a3daafe3b4186f6b6457e090600090a35050565b6001600160a01b0382166102e45760405163ec442f0560e01b8152600060048201526024016100a1565b6102f0600083836102f4565b5050565b600554600160a01b900460ff161561031f57604051633acfd4c960e11b815260040160405180910390fd5b61032a83838361032f565b505050565b6001600160a01b03831661035a57806002600082825461034f919061069a565b909155506103cc9050565b6001600160a01b038316600090815260208190526040902054818110156103ad5760405163391434e360e21b81526001600160a01b038516600482015260248101829052604481018390526064016100a1565b6001600160a01b03841660009081526020819052604090209082900390555b6001600160a01b0382166103e857600280548290039055610407565b6001600160a01b03821660009081526020819052604090208054820190555b816001600160a01b0316836001600160a01b03167fddf252ad1be2c89b69c2b068fc378daa952ba7f163c4a11628f55a4df523b3ef8360405161044c91815260200190565b60405180910390a3505050565b80516001600160a01b038116811461047057600080fd5b919050565b60008060008060008060c0878903121561048e57600080fd5b61049787610459565b95506104a560208801610459565b94506104b360408801610459565b93506104c160608801610459565b92506104cf60808801610459565b91506104dd60a08801610459565b90509295509295509295565b634e487b7160e01b600052604160045260246000fd5b600181811c9082168061051357607f821691505b60208210810361053357634e487b7160e01b600052602260045260246000fd5b50919050565b601f82111561032a57806000526020600020601f840160051c810160208510156105605750805b601f840160051c820191505b81811015610580576000815560010161056c565b5050505050565b81516001600160401b038111156105a0576105a06104e9565b6105b4816105ae84546104ff565b84610539565b6020601f8211600181146105e857600083156105d05750848201515b600019600385901b1c1916600184901b178455610580565b600084815260208120601f198516915b8281101561061857878501518255602094850194600190920191016105f8565b50848210156106365786840151600019600387901b60f8161c191681555b50505050600190811b01905550565b634e487b7160e01b600052601160045260246000fd5b808202811582820484141761067257610672610645565b92915050565b60008261069557634e487b7160e01b600052601260045260246000fd5b500490565b8082018082111561067257610672610645565b60805160a05160c05160e0516101005161012051610b346106fc6000396000610394015260006101d5015260006102d301526000610229015260006103330152600061035a0152610b346000f3fe608060405234801561001057600080fd5b50600436106101425760003560e01c806379cc6790116100b8578063c6349dd11161007c578063c6349dd1146102ce578063dd62ed3e146102f5578063e689c4761461032e578063f015bc9314610355578063f2fde38b1461037c578063fccc28131461038f57600080fd5b806379cc67901461027c5780638da5cb5b1461028f57806395d89b41146102a0578063a9059cbb146102a8578063bff35618146102bb57600080fd5b8063313ce5671161010a578063313ce567146101c1578063351509a8146101d057806342966c681461020f57806360aec0f01461022457806370a082311461024b578063715018a61461027457600080fd5b806306fdde0314610147578063095ea7b31461016557806312686aae1461018857806318160ddd1461019c57806323b872dd146101ae575b600080fd5b61014f6103b6565b60405161015c9190610942565b60405180910390f35b6101786101733660046109ac565b610448565b604051901515815260200161015c565b60055461017890600160a01b900460ff1681565b6002545b60405190815260200161015c565b6101786101bc3660046109d6565b610462565b6040516012815260200161015c565b6101f77f000000000000000000000000000000000000000000000000000000000000000081565b6040516001600160a01b03909116815260200161015c565b61022261021d366004610a13565b610486565b005b6101f77f000000000000000000000000000000000000000000000000000000000000000081565b6101a0610259366004610a2c565b6001600160a01b031660009081526020819052604090205490565b610222610493565b61022261028a3660046109ac565b6104a7565b6005546001600160a01b03166101f7565b61014f6104c0565b6101786102b63660046109ac565b6104cf565b6102226102c9366004610a4e565b6104dd565b6101f77f000000000000000000000000000000000000000000000000000000000000000081565b6101a0610303366004610a70565b6001600160a01b03918216600090815260016020908152604080832093909416825291909152205490565b6101f77f000000000000000000000000000000000000000000000000000000000000000081565b6101f77f000000000000000000000000000000000000000000000000000000000000000081565b61022261038a366004610a2c565b61052e565b6101f77f000000000000000000000000000000000000000000000000000000000000000081565b6060600380546103c590610aa3565b80601f01602080910402602001604051908101604052809291908181526020018280546103f190610aa3565b801561043e5780601f106104135761010080835404028352916020019161043e565b820191906000526020600020905b81548152906001019060200180831161042157829003601f168201915b5050505050905090565b60003361045681858561056e565b60019150505b92915050565b600033610470858285610580565b61047b8585856105fe565b506001949350505050565b610490338261065d565b50565b61049b610693565b6104a560006106c0565b565b6104b2823383610580565b6104bc828261065d565b5050565b6060600480546103c590610aa3565b6000336104568185856105fe565b6104e5610693565b6005805460ff60a01b1916600160a01b831515908102919091179091556040517fe283de4922ea2344d1d1bc86307cd12000476529895ad843b194478831e029e990600090a250565b610536610693565b6001600160a01b03811661056557604051631e4fbdf760e01b8152600060048201526024015b60405180910390fd5b610490816106c0565b61057b8383836001610712565b505050565b6001600160a01b0383811660009081526001602090815260408083209386168352929052205460001981146105f857818110156105e957604051637dc7a0d960e11b81526001600160a01b0384166004820152602481018290526044810183905260640161055c565b6105f884848484036000610712565b50505050565b6001600160a01b03831661062857604051634b637e8f60e11b81526000600482015260240161055c565b6001600160a01b0382166106525760405163ec442f0560e01b81526000600482015260240161055c565b61057b8383836107e7565b6001600160a01b03821661068757604051634b637e8f60e11b81526000600482015260240161055c565b6104bc826000836107e7565b6005546001600160a01b031633146104a55760405163118cdaa760e01b815233600482015260240161055c565b600580546001600160a01b038381166001600160a01b0319831681179093556040519116919082907f8be0079c531659141344cd1fd0a4f28419497f9722a3daafe3b4186f6b6457e090600090a35050565b6001600160a01b03841661073c5760405163e602df0560e01b81526000600482015260240161055c565b6001600160a01b03831661076657604051634a1406b160e11b81526000600482015260240161055c565b6001600160a01b03808516600090815260016020908152604080832093871683529290522082905580156105f857826001600160a01b0316846001600160a01b03167f8c5be1e5ebec7d5bd14f71427d1e84f3dd0314c0f7b2291e5b200ac8c7c3b925846040516107d991815260200190565b60405180910390a350505050565b600554600160a01b900460ff161561081257604051633acfd4c960e11b815260040160405180910390fd5b61057b8383836001600160a01b0383166108435780600260008282546108389190610add565b909155506108b59050565b6001600160a01b038316600090815260208190526040902054818110156108965760405163391434e360e21b81526001600160a01b0385166004820152602481018290526044810183905260640161055c565b6001600160a01b03841660009081526020819052604090209082900390555b6001600160a01b0382166108d1576002805482900390556108f0565b6001600160a01b03821660009081526020819052604090208054820190555b816001600160a01b0316836001600160a01b03167fddf252ad1be2c89b69c2b068fc378daa952ba7f163c4a11628f55a4df523b3ef8360405161093591815260200190565b60405180910390a3505050565b602081526000825180602084015260005b818110156109705760208186018101516040868401015201610953565b506000604082850101526040601f19601f83011684010191505092915050565b80356001600160a01b03811681146109a757600080fd5b919050565b600080604083850312156109bf57600080fd5b6109c883610990565b946020939093013593505050565b6000806000606084860312156109eb57600080fd5b6109f484610990565b9250610a0260208501610990565b929592945050506040919091013590565b600060208284031215610a2557600080fd5b5035919050565b600060208284031215610a3e57600080fd5b610a4782610990565b9392505050565b600060208284031215610a6057600080fd5b81358015158114610a4757600080fd5b60008060408385031215610a8357600080fd5b610a8c83610990565b9150610a9a60208401610990565b90509250929050565b600181811c90821680610ab757607f821691505b602082108103610ad757634e487b7160e01b600052602260045260246000fd5b50919050565b8082018082111561045c57634e487b7160e01b600052601160045260246000fdfea2646970667358221220740e73b998897693b6d9cedeb6dccad7ad977d81d533f1f3774cbff669450d6364736f6c634300081c0033",
  "linkReferences": {},
  "deployedLinkReferences": {}
}