{
  "_format": "hh-sol-artifact-1",
  "contractName": "BLMNPresale",
  "sourceName": "contracts/BITLMNPresale.sol",
  "abi": [
    {
      "inputs": [
        {
          "internalType": "address",
          "name": "_priceFeedAddress",
          "type": "address"
        }
      ],
      "stateMutability": "nonpayable",
      "type": "constructor"
    },
    {
      "inputs": [
        {
          "internalType": "address",
          "name": "owner",
          "type": "address"
        }
      ],
      "name": "OwnableInvalidOwner",
      "type": "error"
    },
    {
      "inputs": [
        {
          "internalType": "address",
          "name": "account",
          "type": "address"
        }
      ],
      "name": "OwnableUnauthorizedAccount",
      "type": "error"
    },
    {
      "inputs": [],
      "name": "PRESALE_AlreadyClaimed",
      "type": "error"
    },
    {
      "inputs": [],
      "name": "PRESALE_ClaimingNotEnabled",
      "type": "error"
    },
    {
      "inputs": [],
      "name": "PRESALE_InsufficientBalance",
      "type": "error"
    },
    {
      "inputs": [],
      "name": "PRESALE_InsufficientETH",
      "type": "error"
    },
    {
      "inputs": [],
      "name": "PRESALE_InvalidPrice",
      "type": "error"
    },
    {
      "inputs": [],
      "name": "PRESALE_InvalidPurchaseAmount",
      "type": "error"
    },
    {
      "inputs": [],
      "name": "PRESALE_NoBalanceToWithdraw",
      "type": "error"
    },
    {
      "inputs": [],
      "name": "PRESALE_NotActive",
      "type": "error"
    },
    {
      "inputs": [],
      "name": "PRESALE_OracleFailed",
      "type": "error"
    },
    {
      "inputs": [],
      "name": "PRESALE_TokenNotSet",
      "type": "error"
    },
    {
      "inputs": [],
      "name": "PRESALE_TransferFailed",
      "type": "error"
    },
    {
      "inputs": [],
      "name": "PRESALE_UnsupportedNetwork",
      "type": "error"
    },
    {
      "inputs": [],
      "name": "PRESALE_WithdrawFailed",
      "type": "error"
    },
    {
      "inputs": [],
      "name": "ReentrancyGuardReentrantCall",
      "type": "error"
    },
    {
      "anonymous": false,
      "inputs": [
        {
          "indexed": true,
          "internalType": "address",
          "name": "previousOwner",
          "type": "address"
        },
        {
          "indexed": true,
          "internalType": "address",
          "name": "newOwner",
          "type": "address"
        }
      ],
      "name": "OwnershipTransferred",
      "type": "event"
    },
    {
      "anonymous": false,
      "inputs": [
        {
          "indexed": false,
          "internalType": "bool",
          "name": "ended",
          "type": "bool"
        },
        {
          "indexed": false,
          "internalType": "bool",
          "name": "claimingEnabled",
          "type": "bool"
        }
      ],
      "name": "PresaleStatusUpdated",
      "type": "event"
    },
    {
      "anonymous": false,
      "inputs": [
        {
          "indexed": true,
          "internalType": "address",
          "name": "user",
          "type": "address"
        },
        {
          "indexed": false,
          "internalType": "uint256",
          "name": "amount",
          "type": "uint256"
        }
      ],
      "name": "RefundIssued",
      "type": "event"
    },
    {
      "anonymous": false,
      "inputs": [
        {
          "indexed": false,
          "internalType": "uint256",
          "name": "stageId",
          "type": "uint256"
        },
        {
          "indexed": false,
          "internalType": "uint256",
          "name": "priceUSD",
          "type": "uint256"
        }
      ],
      "name": "StageCreated",
      "type": "event"
    },
    {
      "anonymous": false,
      "inputs": [
        {
          "indexed": true,
          "internalType": "address",
          "name": "user",
          "type": "address"
        },
        {
          "indexed": false,
          "internalType": "uint256",
          "name": "amount",
          "type": "uint256"
        }
      ],
      "name": "TokensClaimed",
      "type": "event"
    },
    {
      "anonymous": false,
      "inputs": [
        {
          "indexed": true,
          "internalType": "address",
          "name": "buyer",
          "type": "address"
        },
        {
          "indexed": false,
          "internalType": "uint256",
          "name": "tokenAmount",
          "type": "uint256"
        },
        {
          "indexed": false,
          "internalType": "uint256",
          "name": "ethPaid",
          "type": "uint256"
        },
        {
          "indexed": false,
          "internalType": "uint256",
          "name": "usdValue",
          "type": "uint256"
        },
        {
          "indexed": false,
          "internalType": "uint256",
          "name": "stageId",
          "type": "uint256"
        }
      ],
      "name": "TokensPurchased",
      "type": "event"
    },
    {
      "inputs": [],
      "name": "blmnToken",
      "outputs": [
        {
          "internalType": "contract IERC20",
          "name": "",
          "type": "address"
        }
      ],
      "stateMutability": "view",
      "type": "function"
    },
    {
      "inputs": [],
      "name": "claimTokens",
      "outputs": [],
      "stateMutability": "nonpayable",
      "type": "function"
    },
    {
      "inputs": [],
      "name": "claimingEnabled",
      "outputs": [
        {
          "internalType": "bool",
          "name": "",
          "type": "bool"
        }
      ],
      "stateMutability": "view",
      "type": "function"
    },
    {
      "inputs": [],
      "name": "currentStageId",
      "outputs": [
        {
          "internalType": "uint256",
          "name": "",
          "type": "uint256"
        }
      ],
      "stateMutability": "view",
      "type": "function"
    },
    {
      "inputs": [],
      "name": "ethUsdPriceFeed",
      "outputs": [
        {
          "internalType": "contract AggregatorV3Interface",
          "name": "",
          "type": "address"
        }
      ],
      "stateMutability": "view",
      "type": "function"
    },
    {
      "inputs": [],
      "name": "getCurrentStage",
      "outputs": [
        {
          "internalType": "uint256",
          "name": "stageId",
          "type": "uint256"
        },
        {
          "internalType": "uint256",
          "name": "priceUSD",
          "type": "uint256"
        },
        {
          "internalType": "uint256",
          "name": "soldTokens",
          "type": "uint256"
        },
        {
          "internalType": "bool",
          "name": "active",
          "type": "bool"
        }
      ],
      "stateMutability": "view",
      "type": "function"
    },
    {
      "inputs": [],
      "name": "getPresaleStatus",
      "outputs": [
        {
          "internalType": "bool",
          "name": "isActive",
          "type": "bool"
        },
        {
          "internalType": "bool",
          "name": "isClaimingEnabled",
          "type": "bool"
        },
        {
          "internalType": "bool",
          "name": "isPresaleEnded",
          "type": "bool"
        }
      ],
      "stateMutability": "view",
      "type": "function"
    },
    {
      "inputs": [
        {
          "internalType": "uint256",
          "name": "stageId",
          "type": "uint256"
        }
      ],
      "name": "getStageInfo",
      "outputs": [
        {
          "components": [
            {
              "internalType": "uint256",
              "name": "priceUSD",
              "type": "uint256"
            },
            {
              "internalType": "uint256",
              "name": "soldTokens",
              "type": "uint256"
            },
            {
              "internalType": "bool",
              "name": "active",
              "type": "bool"
            }
          ],
          "internalType": "struct BLMNPresale.StageInfo",
          "name": "",
          "type": "tuple"
        }
      ],
      "stateMutability": "view",
      "type": "function"
    },
    {
      "inputs": [],
      "name": "getTokenPrice",
      "outputs": [
        {
          "internalType": "uint256",
          "name": "priceInUSD",
          "type": "uint256"
        },
        {
          "internalType": "uint256",
          "name": "priceInETH",
          "type": "uint256"
        }
      ],
      "stateMutability": "view",
      "type": "function"
    },
    {
      "inputs": [
        {
          "internalType": "address",
          "name": "user",
          "type": "address"
        }
      ],
      "name": "getUserPurchases",
      "outputs": [
        {
          "internalType": "uint256",
          "name": "tokenAmount",
          "type": "uint256"
        },
        {
          "internalType": "uint256",
          "name": "ethContributed",
          "type": "uint256"
        },
        {
          "internalType": "uint256",
          "name": "timestamp",
          "type": "uint256"
        },
        {
          "internalType": "bool",
          "name": "claimed",
          "type": "bool"
        },
        {
          "internalType": "uint256",
          "name": "stageId",
          "type": "uint256"
        }
      ],
      "stateMutability": "view",
      "type": "function"
    },
    {
      "inputs": [
        {
          "internalType": "uint256",
          "name": "priceUSD",
          "type": "uint256"
        }
      ],
      "name": "nextStage",
      "outputs": [],
      "stateMutability": "nonpayable",
      "type": "function"
    },
    {
      "inputs": [],
      "name": "owner",
      "outputs": [
        {
          "internalType": "address",
          "name": "",
          "type": "address"
        }
      ],
      "stateMutability": "view",
      "type": "function"
    },
    {
      "inputs": [],
      "name": "presaleEnded",
      "outputs": [
        {
          "internalType": "bool",
          "name": "",
          "type": "bool"
        }
      ],
      "stateMutability": "view",
      "type": "function"
    },
    {
      "inputs": [
        {
          "internalType": "uint256",
          "name": "tokenAmount",
          "type": "uint256"
        }
      ],
      "name": "purchaseTokens",
      "outputs": [],
      "stateMutability": "payable",
      "type": "function"
    },
    {
      "inputs": [
        {
          "internalType": "address",
          "name": "token",
          "type": "address"
        }
      ],
      "name": "recoverToken",
      "outputs": [],
      "stateMutability": "nonpayable",
      "type": "function"
    },
    {
      "inputs": [],
      "name": "renounceOwnership",
      "outputs": [],
      "stateMutability": "nonpayable",
      "type": "function"
    },
    {
      "inputs": [],
      "name": "requestRefund",
      "outputs": [],
      "stateMutability": "nonpayable",
      "type": "function"
    },
    {
      "inputs": [
        {
          "internalType": "address",
          "name": "_token",
          "type": "address"
        }
      ],
      "name": "setBlmnToken",
      "outputs": [],
      "stateMutability": "nonpayable",
      "type": "function"
    },
    {
      "inputs": [
        {
          "internalType": "uint256",
          "name": "",
          "type": "uint256"
        }
      ],
      "name": "stages",
      "outputs": [
        {
          "internalType": "uint256",
          "name": "priceUSD",
          "type": "uint256"
        },
        {
          "internalType": "uint256",
          "name": "soldTokens",
          "type": "uint256"
        },
        {
          "internalType": "bool",
          "name": "active",
          "type": "bool"
        }
      ],
      "stateMutability": "view",
      "type": "function"
    },
    {
      "inputs": [],
      "name": "totalEthRaised",
      "outputs": [
        {
          "internalType": "uint256",
          "name": "",
          "type": "uint256"
        }
      ],
      "stateMutability": "view",
      "type": "function"
    },
    {
      "inputs": [],
      "name": "totalTokensSold",
      "outputs": [
        {
          "internalType": "uint256",
          "name": "",
          "type": "uint256"
        }
      ],
      "stateMutability": "view",
      "type": "function"
    },
    {
      "inputs": [],
      "name": "totalUSDRaised",
      "outputs": [
        {
          "internalType": "uint256",
          "name": "",
          "type": "uint256"
        }
      ],
      "stateMutability": "view",
      "type": "function"
    },
    {
      "inputs": [
        {
          "internalType": "address",
          "name": "newOwner",
          "type": "address"
        }
      ],
      "name": "transferOwnership",
      "outputs": [],
      "stateMutability": "nonpayable",
      "type": "function"
    },
    {
      "inputs": [
        {
          "internalType": "bool",
          "name": "ended",
          "type": "bool"
        },
        {
          "internalType": "bool",
          "name": "enableClaiming",
          "type": "bool"
        }
      ],
      "name": "updatePresaleStatus",
      "outputs": [],
      "stateMutability": "nonpayable",
      "type": "function"
    },
    {
      "inputs": [
        {
          "internalType": "address",
          "name": "",
          "type": "address"
        }
      ],
      "name": "userInfo",
      "outputs": [
        {
          "internalType": "uint256",
          "name": "tokenAmount",
          "type": "uint256"
        },
        {
          "internalType": "uint256",
          "name": "ethContributed",
          "type": "uint256"
        },
        {
          "internalType": "uint256",
          "name": "timestamp",
          "type": "uint256"
        },
        {
          "internalType": "bool",
          "name": "claimed",
          "type": "bool"
        },
        {
          "internalType": "uint256",
          "name": "stageId",
          "type": "uint256"
        }
      ],
      "stateMutability": "view",
      "type": "function"
    },
    {
      "inputs": [],
      "name": "withdrawETH",
      "outputs": [],
      "stateMutability": "nonpayable",
      "type": "function"
    },
    {
      "inputs": [],
      "name": "withdrawUnsoldTokens",
      "outputs": [],
      "stateMutability": "nonpayable",
      "type": "function"
    },
    {
      "stateMutability": "payable",
      "type": "receive"
    }
  ],
  "bytecode": "0x60a060405234801561001057600080fd5b506040516117f43803806117f483398101604081905261002f9161015d565b338061005557604051631e4fbdf760e01b81526000600482015260240160405180910390fd5b61005e8161010d565b50600180556001600160a01b0381166100fc5746612105819003610098577371041dddad3595f9ced3dccfbe3d1f4b0a16bb7091506100fa565b8061a4b1036100bd5773639fe6ab55c921f74e7fac1ee960c0b6293ba61291506100fa565b80600a036100e1577313e3ee699d1909e989722e753853ae30b17e08c591506100fa565b60405163637a86fb60e11b815260040160405180910390fd5b505b6001600160a01b031660805261018d565b600080546001600160a01b038381166001600160a01b0319831681178455604051919092169283917f8be0079c531659141344cd1fd0a4f28419497f9722a3daafe3b4186f6b6457e09190a35050565b60006020828403121561016f57600080fd5b81516001600160a01b038116811461018657600080fd5b9392505050565b6080516116456101af600039600081816102f5015261138f01526116456000f3fe6080604052600436106101a05760003560e01c8063894edcd4116100ec578063d5cef1331161008a578063e580b2b011610064578063e580b2b014610596578063ec45127a146105b5578063eedbe31d146105cb578063f2fde38b1461061e57600080fd5b8063d5cef13314610538578063d7517caa1461054d578063e086e5ec1461058157600080fd5b8063a3759f60116100c6578063a3759f6014610472578063c6e5d8f6146104b6578063c8bdbfb61461050d578063c9e904be1461052257600080fd5b8063894edcd4146104145780638da5cb5b146104345780639be65a601461045257600080fd5b806348c54b9d11610159578063715018a611610133578063715018a61461037a5780637b97008d1461038f578063845ddcb2146103a257806385cbc881146103fe57600080fd5b806348c54b9d146103175780634b94f50e1461032c57806363b201171461035657600080fd5b80630e141a9b146101c35780631959a002146101f257806319cee4ea146102695780631bc1fdb91461028b5780633a282756146102c357806342f6fb29146102e357600080fd5b366101be57604051635be5e1e960e11b815260040160405180910390fd5b600080fd5b3480156101cf57600080fd5b506007546101dd9060ff1681565b60405190151581526020015b60405180910390f35b3480156101fe57600080fd5b5061023f61020d36600461144b565b6009602052600090815260409020805460018201546002830154600384015460049094015492939192909160ff169085565b6040805195865260208601949094529284019190915215156060830152608082015260a0016101e9565b34801561027557600080fd5b50610289610284366004611482565b61063e565b005b34801561029757600080fd5b506002546102ab906001600160a01b031681565b6040516001600160a01b0390911681526020016101e9565b3480156102cf57600080fd5b506102896102de36600461144b565b6106a7565b3480156102ef57600080fd5b506102ab7f000000000000000000000000000000000000000000000000000000000000000081565b34801561032357600080fd5b506102896106f8565b34801561033857600080fd5b506103416108d8565b604080519283526020830191909152016101e9565b34801561036257600080fd5b5061036c60045481565b6040519081526020016101e9565b34801561038657600080fd5b50610289610925565b61028961039d3660046114bb565b610937565b3480156103ae57600080fd5b506103e16103bd3660046114bb565b60086020526000908152604090208054600182015460029092015490919060ff1683565b6040805193845260208401929092521515908201526060016101e9565b34801561040a57600080fd5b5061036c60055481565b34801561042057600080fd5b5061028961042f3660046114bb565b610bb8565b34801561044057600080fd5b506000546001600160a01b03166102ab565b34801561045e57600080fd5b5061028961046d36600461144b565b610cb7565b34801561047e57600080fd5b5061049261048d3660046114bb565b610e35565b604080518251815260208084015190820152918101511515908201526060016101e9565b3480156104c257600080fd5b5061023f6104d136600461144b565b6001600160a01b03166000908152600960205260409020805460018201546002830154600384015460049094015492949193909260ff90911691565b34801561051957600080fd5b50610289610e99565b34801561052e57600080fd5b5061036c60065481565b34801561054457600080fd5b5061028961103d565b34801561055957600080fd5b50610562611188565b60408051931515845291151560208401521515908201526060016101e9565b34801561058d57600080fd5b506102896111d3565b3480156105a257600080fd5b506007546101dd90610100900460ff1681565b3480156105c157600080fd5b5061036c60035481565b3480156105d757600080fd5b5060035460008181526008602052604090208054600182015460029092015490919060ff1660408051948552602085019390935291830152151560608201526080016101e9565b34801561062a57600080fd5b5061028961063936600461144b565b611272565b6106466112b2565b6007805461ffff191661010084151590810260ff1916919091178315159081179092556040805191825260208201929092527fddae021d0b17074b14c9445b6be7977da99c9f408411ca03c29fbbe0e56cb6c8910160405180910390a15050565b6106af6112b2565b6001600160a01b0381166106d65760405163c543fbef60e01b815260040160405180910390fd5b600280546001600160a01b0319166001600160a01b0392909216919091179055565b6107006112df565b60075460ff166107235760405163cdd21b1560e01b815260040160405180910390fd5b336000908152600960205260409020805415806107445750600381015460ff165b156107625760405163fa585a1d60e01b815260040160405180910390fd5b80546002546040516370a0823160e01b815230600482015282916001600160a01b0316906370a0823190602401602060405180830381865afa1580156107ac573d6000803e3d6000fd5b505050506040513d601f19601f820116820180604052508101906107d091906114d4565b10156107ef57604051631aefcdd760e11b815260040160405180910390fd5b60038201805460ff1916600117905560025460405163a9059cbb60e01b8152336004820152602481018390526000916001600160a01b03169063a9059cbb906044016020604051808303816000875af1158015610850573d6000803e3d6000fd5b505050506040513d601f19601f8201168201806040525081019061087491906114ed565b905080610894576040516396e5b31560e01b815260040160405180910390fd5b60405182815233907f896e034966eaaf1adc54acc0f257056febbd300c9e47182cf761982cf1f5e430906020015b60405180910390a25050506108d660018055565b565b6003546000908152600860205260408120600281015482919060ff16610911576040516348e422b160e11b815260040160405180910390fd5b8054925061091e83611309565b9150509091565b61092d6112b2565b6108d6600061133a565b61093f6112df565b600754610100900460ff1615610968576040516348e422b160e11b815260040160405180910390fd5b6002546001600160a01b03166109915760405163c543fbef60e01b815260040160405180910390fd5b6003546000908152600860205260409020600281015460ff166109c7576040516348e422b160e11b815260040160405180910390fd5b8054600090670de0b6b3a7640000906109e09085611520565b6109ea919061153d565b905060006109f782611309565b905080341015610a1a576040516301ed7a1160e41b815260040160405180910390fd5b83836001016000828254610a2e919061155f565b925050819055508360046000828254610a47919061155f565b925050819055508160056000828254610a60919061155f565b925050819055508060066000828254610a79919061155f565b9091555050336000908152600960205260408120805490918691839190610aa190849061155f565b9250508190555081816001016000828254610abc919061155f565b90915550504260028201556003805460048301558101805460ff191690556000610ae68334611572565b90508015610b5957604051600090339083908381818185875af1925050503d8060008114610b30576040519150601f19603f3d011682016040523d82523d6000602084013e610b35565b606091505b5050905080610b57576040516341689b0760e01b815260040160405180910390fd5b505b6003546040805188815260208101869052908101869052606081019190915233907f34987d73948b60cfba9beeb35760c345a3be430f3540605113911ead78a0830e9060800160405180910390a25050505050610bb560018055565b50565b610bc06112b2565b80600003610be157604051631956c8f560e31b815260040160405180910390fd5b60035460009081526008602052604090206002015460ff1615610c1b576003546000908152600860205260409020600201805460ff191690555b60038054906000610c2b83611585565b909155505060408051606081018252828152600060208083018281526001848601818152600380548652600885529487902095518655915190850155516002909301805460ff1916931515939093179092555482519081529081018390527f87205f85fbbe888348d465e69d6585696b215bc843bbb6079975a65b2f5c4e7e910160405180910390a150565b610cbf6112b2565b6002546001600160a01b0390811690821603610cee57604051631956c8f560e31b815260040160405180910390fd5b6040516370a0823160e01b81523060048201526000906001600160a01b038316906370a0823190602401602060405180830381865afa158015610d35573d6000803e3d6000fd5b505050506040513d601f19601f82011682018060405250810190610d5991906114d4565b905080600003610d7c576040516302cd750d60e51b815260040160405180910390fd5b6000826001600160a01b031663a9059cbb610d9f6000546001600160a01b031690565b6040516001600160e01b031960e084901b1681526001600160a01b039091166004820152602481018590526044016020604051808303816000875af1158015610dec573d6000803e3d6000fd5b505050506040513d601f19601f82011682018060405250810190610e1091906114ed565b905080610e30576040516396e5b31560e01b815260040160405180910390fd5b505050565b610e5b604051806060016040528060008152602001600081526020016000151581525090565b506000908152600860209081526040918290208251606081018452815481526001820154928101929092526002015460ff1615159181019190915290565b610ea16112b2565b6002546001600160a01b0316610eca5760405163c543fbef60e01b815260040160405180910390fd5b600754610100900460ff16610ef2576040516348e422b160e11b815260040160405180910390fd5b6002546040516370a0823160e01b81523060048201526000916001600160a01b0316906370a0823190602401602060405180830381865afa158015610f3b573d6000803e3d6000fd5b505050506040513d601f19601f82011682018060405250810190610f5f91906114d4565b905080600003610f82576040516302cd750d60e51b815260040160405180910390fd5b6002546000906001600160a01b031663a9059cbb610fa86000546001600160a01b031690565b6040516001600160e01b031960e084901b1681526001600160a01b039091166004820152602481018590526044016020604051808303816000875af1158015610ff5573d6000803e3d6000fd5b505050506040513d601f19601f8201168201806040525081019061101991906114ed565b905080611039576040516396e5b31560e01b815260040160405180910390fd5b5050565b6110456112df565b600754610100900460ff1661106d576040516348e422b160e11b815260040160405180910390fd5b3360009081526009602052604090208054158061108e5750600381015460ff165b156110ac5760405163fa585a1d60e01b815260040160405180910390fd5b600181015460008190036110d3576040516302cd750d60e51b815260040160405180910390fd5b60038201805460ff191660019081179091556000808455908301819055604051339083908381818185875af1925050503d806000811461112f576040519150601f19603f3d011682016040523d82523d6000602084013e611134565b606091505b5050905080611156576040516341689b0760e01b815260040160405180910390fd5b60405182815233907fa171b6942063c6f2800ce40a780edce37baa2b618571b11eedd1e69e626e7d76906020016108c2565b6003546000908152600860205260408120600201548190819060ff1680156111b85750600754610100900460ff16155b600754909460ff808316955061010090920490911692509050565b6111db6112b2565b4760008190036111fe576040516302cd750d60e51b815260040160405180910390fd5b600080546040516001600160a01b039091169083908381818185875af1925050503d806000811461124b576040519150601f19603f3d011682016040523d82523d6000602084013e611250565b606091505b5050905080611039576040516341689b0760e01b815260040160405180910390fd5b61127a6112b2565b6001600160a01b0381166112a957604051631e4fbdf760e01b8152600060048201526024015b60405180910390fd5b610bb58161133a565b6000546001600160a01b031633146108d65760405163118cdaa760e01b81523360048201526024016112a0565b60026001540361130257604051633ee5aeb560e01b815260040160405180910390fd5b6002600155565b60008061131461138a565b905080611329670de0b6b3a764000085611520565b611333919061153d565b9392505050565b600080546001600160a01b038381166001600160a01b0319831681178455604051919092169283917f8be0079c531659141344cd1fd0a4f28419497f9722a3daafe3b4186f6b6457e09190a35050565b6000807f00000000000000000000000000000000000000000000000000000000000000006001600160a01b031663feaf968c6040518163ffffffff1660e01b815260040160a060405180830381865afa1580156113eb573d6000803e3d6000fd5b505050506040513d601f19601f8201168201806040525081019061140f91906115bd565b5050509150506000811361143657604051634c1398cb60e11b815260040160405180910390fd5b611445816402540be400611520565b91505090565b60006020828403121561145d57600080fd5b81356001600160a01b038116811461133357600080fd5b8015158114610bb557600080fd5b6000806040838503121561149557600080fd5b82356114a081611474565b915060208301356114b081611474565b809150509250929050565b6000602082840312156114cd57600080fd5b5035919050565b6000602082840312156114e657600080fd5b5051919050565b6000602082840312156114ff57600080fd5b815161133381611474565b634e487b7160e01b600052601160045260246000fd5b80820281158282048414176115375761153761150a565b92915050565b60008261155a57634e487b7160e01b600052601260045260246000fd5b500490565b808201808211156115375761153761150a565b818103818111156115375761153761150a565b6000600182016115975761159761150a565b5060010190565b805169ffffffffffffffffffff811681146115b857600080fd5b919050565b600080600080600060a086880312156115d557600080fd5b6115de8661159e565b602087015160408801516060890151929750909550935091506116036080870161159e565b9050929550929590935056fea26469706673582212203107f227ae74d60f47bfe2fd494cc6335b9d824e172c7e7a2a7e63f478556a4b64736f6c634300081c0033",
  "linkReferences": {},
  "deployedLinkReferences": {}
}